{
  "contractName": "VotingMachine",
  "abi": [
    {
      "inputs": [],
      "payable": false,
      "stateMutability": "nonpayable",
      "type": "constructor"
    },
    {
      "anonymous": false,
      "inputs": [
        {
          "indexed": false,
          "internalType": "string",
          "name": "candidateName",
          "type": "string"
        },
        {
          "indexed": false,
          "internalType": "string",
          "name": "partyName",
          "type": "string"
        },
        {
          "indexed": false,
          "internalType": "uint256",
          "name": "voteCount",
          "type": "uint256"
        },
        {
          "indexed": false,
          "internalType": "uint256",
          "name": "candidateNo",
          "type": "uint256"
        }
      ],
      "name": "CandidateAdded",
      "type": "event"
    },
    {
      "anonymous": false,
      "inputs": [
        {
          "indexed": false,
          "internalType": "uint256",
          "name": "candidateNo",
          "type": "uint256"
        },
        {
          "indexed": false,
          "internalType": "string",
          "name": "candidateName",
          "type": "string"
        },
        {
          "indexed": false,
          "internalType": "string",
          "name": "partyName",
          "type": "string"
        }
      ],
      "name": "VoteCasted",
      "type": "event"
    },
    {
      "constant": true,
      "inputs": [],
      "name": "candidateCount",
      "outputs": [
        {
          "internalType": "uint256",
          "name": "",
          "type": "uint256"
        }
      ],
      "payable": false,
      "stateMutability": "view",
      "type": "function"
    },
    {
      "constant": true,
      "inputs": [
        {
          "internalType": "uint256",
          "name": "",
          "type": "uint256"
        }
      ],
      "name": "candidates",
      "outputs": [
        {
          "internalType": "string",
          "name": "candidateName",
          "type": "string"
        },
        {
          "internalType": "string",
          "name": "partyName",
          "type": "string"
        },
        {
          "internalType": "uint256",
          "name": "voteCount",
          "type": "uint256"
        },
        {
          "internalType": "bool",
          "name": "isWin",
          "type": "bool"
        }
      ],
      "payable": false,
      "stateMutability": "view",
      "type": "function"
    },
    {
      "constant": true,
      "inputs": [],
      "name": "totalVotes",
      "outputs": [
        {
          "internalType": "uint256",
          "name": "",
          "type": "uint256"
        }
      ],
      "payable": false,
      "stateMutability": "view",
      "type": "function"
    },
    {
      "constant": true,
      "inputs": [],
      "name": "winner",
      "outputs": [
        {
          "internalType": "string",
          "name": "",
          "type": "string"
        }
      ],
      "payable": false,
      "stateMutability": "view",
      "type": "function"
    },
    {
      "constant": false,
      "inputs": [
        {
          "internalType": "string",
          "name": "_cName",
          "type": "string"
        },
        {
          "internalType": "string",
          "name": "_pName",
          "type": "string"
        }
      ],
      "name": "addCandidate",
      "outputs": [],
      "payable": false,
      "stateMutability": "nonpayable",
      "type": "function"
    },
    {
      "constant": false,
      "inputs": [
        {
          "internalType": "uint256",
          "name": "_cId",
          "type": "uint256"
        },
        {
          "internalType": "string",
          "name": "_candName",
          "type": "string"
        },
        {
          "internalType": "string",
          "name": "_partName",
          "type": "string"
        }
      ],
      "name": "casteVote",
      "outputs": [],
      "payable": false,
      "stateMutability": "nonpayable",
      "type": "function"
    }
  ],
  "bytecode": "0x60806040523480156200001157600080fd5b506000808190555060006001819055506200009d6040518060400160405280600681526020017f52697465736800000000000000000000000000000000000000000000000000008152506040518060400160405280600381526020017f424a500000000000000000000000000000000000000000000000000000000000815250620000a360201b60201c565b62000331565b6000809050604051806080016040528084815260200183815260200182815260200160001515815250600360006001600081548092919060010191905055815260200190815260200160002060008201518160000190805190602001906200010d92919062000282565b5060208201518160010190805190602001906200012c92919062000282565b506040820151816002015560608201518160030160006101000a81548160ff0219169083151502179055509050507f0127c9b7f15cc2b48e5dae0f25e96cd396f418b0b75dffb8d75a849d0d285b3c8383600180540384604051808060200180602001858152602001848152602001838103835287818151815260200191508051906020019080838360005b83811015620001d5578082015181840152602081019050620001b8565b50505050905090810190601f168015620002035780820380516001836020036101000a031916815260200191505b50838103825286818151815260200191508051906020019080838360005b838110156200023e57808201518184015260208101905062000221565b50505050905090810190601f1680156200026c5780820380516001836020036101000a031916815260200191505b50965050505050505060405180910390a1505050565b828054600181600116156101000203166002900490600052602060002090601f016020900481019282601f10620002c557805160ff1916838001178555620002f6565b82800160010185558215620002f6579182015b82811115620002f5578251825591602001919060010190620002d8565b5b50905062000305919062000309565b5090565b6200032e91905b808211156200032a57600081600090555060010162000310565b5090565b90565b610b0c80620003416000396000f3fe608060405234801561001057600080fd5b50600436106100625760003560e01c80630d15fd77146100675780631458cb2e1461008557806326541b56146101e15780633477ee2e14610333578063a9a981a314610458578063dfbf53ae14610476575b600080fd5b61006f6104f9565b6040518082815260200191505060405180910390f35b6101df6004803603606081101561009b57600080fd5b8101908080359060200190929190803590602001906401000000008111156100c257600080fd5b8201836020820111156100d457600080fd5b803590602001918460018302840111640100000000831117156100f657600080fd5b91908080601f016020809104026020016040519081016040528093929190818152602001838380828437600081840152601f19601f8201169050808301925050505050505091929192908035906020019064010000000081111561015957600080fd5b82018360208201111561016b57600080fd5b8035906020019184600183028401116401000000008311171561018d57600080fd5b91908080601f016020809104026020016040519081016040528093929190818152602001838380828437600081840152601f19601f8201169050808301925050505050505091929192905050506104ff565b005b610331600480360360408110156101f757600080fd5b810190808035906020019064010000000081111561021457600080fd5b82018360208201111561022657600080fd5b8035906020019184600183028401116401000000008311171561024857600080fd5b91908080601f016020809104026020016040519081016040528093929190818152602001838380828437600081840152601f19601f820116905080830192505050505050509192919290803590602001906401000000008111156102ab57600080fd5b8201836020820111156102bd57600080fd5b803590602001918460018302840111640100000000831117156102df57600080fd5b91908080601f016020809104026020016040519081016040528093929190818152602001838380828437600081840152601f19601f82011690508083019250505050505050919291929050505061064c565b005b61035f6004803603602081101561034957600080fd5b8101908080359060200190929190505050610821565b60405180806020018060200185815260200184151515158152602001838103835287818151815260200191508051906020019080838360005b838110156103b3578082015181840152602081019050610398565b50505050905090810190601f1680156103e05780820380516001836020036101000a031916815260200191505b50838103825286818151815260200191508051906020019080838360005b838110156104195780820151818401526020810190506103fe565b50505050905090810190601f1680156104465780820380516001836020036101000a031916815260200191505b50965050505050505060405180910390f35b61046061098e565b6040518082815260200191505060405180910390f35b61047e610994565b6040518080602001828103825283818151815260200191508051906020019080838360005b838110156104be5780820151818401526020810190506104a3565b50505050905090810190601f1680156104eb5780820380516001836020036101000a031916815260200191505b509250505060405180910390f35b60005481565b600080815480929190600101919050555060036000848152602001908152602001600020600201600081548092919060010191905055507f70e4a8b937d3f9f46e73149f3089c364d8c27e56d72bf8e0ea1155101421ea35838383604051808481526020018060200180602001838103835285818151815260200191508051906020019080838360005b838110156105a4578082015181840152602081019050610589565b50505050905090810190601f1680156105d15780820380516001836020036101000a031916815260200191505b50838103825284818151815260200191508051906020019080838360005b8381101561060a5780820151818401526020810190506105ef565b50505050905090810190601f1680156106375780820380516001836020036101000a031916815260200191505b509550505050505060405180910390a1505050565b6000809050604051806080016040528084815260200183815260200182815260200160001515815250600360006001600081548092919060010191905055815260200190815260200160002060008201518160000190805190602001906106b4929190610a32565b5060208201518160010190805190602001906106d1929190610a32565b506040820151816002015560608201518160030160006101000a81548160ff0219169083151502179055509050507f0127c9b7f15cc2b48e5dae0f25e96cd396f418b0b75dffb8d75a849d0d285b3c8383600180540384604051808060200180602001858152602001848152602001838103835287818151815260200191508051906020019080838360005b8381101561077857808201518184015260208101905061075d565b50505050905090810190601f1680156107a55780820380516001836020036101000a031916815260200191505b50838103825286818151815260200191508051906020019080838360005b838110156107de5780820151818401526020810190506107c3565b50505050905090810190601f16801561080b5780820380516001836020036101000a031916815260200191505b50965050505050505060405180910390a1505050565b6003602052806000526040600020600091509050806000018054600181600116156101000203166002900480601f0160208091040260200160405190810160405280929190818152602001828054600181600116156101000203166002900480156108cd5780601f106108a2576101008083540402835291602001916108cd565b820191906000526020600020905b8154815290600101906020018083116108b057829003601f168201915b505050505090806001018054600181600116156101000203166002900480601f01602080910402602001604051908101604052809291908181526020018280546001816001161561010002031660029004801561096b5780601f106109405761010080835404028352916020019161096b565b820191906000526020600020905b81548152906001019060200180831161094e57829003601f168201915b5050505050908060020154908060030160009054906101000a900460ff16905084565b60015481565b60028054600181600116156101000203166002900480601f016020809104026020016040519081016040528092919081815260200182805460018160011615610100020316600290048015610a2a5780601f106109ff57610100808354040283529160200191610a2a565b820191906000526020600020905b815481529060010190602001808311610a0d57829003601f168201915b505050505081565b828054600181600116156101000203166002900490600052602060002090601f016020900481019282601f10610a7357805160ff1916838001178555610aa1565b82800160010185558215610aa1579182015b82811115610aa0578251825591602001919060010190610a85565b5b509050610aae9190610ab2565b5090565b610ad491905b80821115610ad0576000816000905550600101610ab8565b5090565b9056fea265627a7a7231582067477e299ca1b8a25e1f2fdd49aec33544e4b8b7030062983574529f6684921a64736f6c63430005100032",
  "source": "pragma solidity ^0.5.0;\r\n//Specific version of solidity\r\n\r\ncontract VotingMachine{\r\n    \r\n    uint public totalVotes;\r\n    uint public candidateCount;\r\n    string public winner;\r\n    struct Candidate{\r\n        string candidateName;\r\n        string partyName;\r\n        uint voteCount;\r\n        bool isWin;\r\n        \r\n    }\r\n    mapping(uint => Candidate) public candidates;\r\n    \r\n    event CandidateAdded(string candidateName,string partyName,uint voteCount,uint candidateNo);\r\n    event VoteCasted(uint candidateNo,string candidateName,string partyName);\r\n    constructor() public {\r\n        \r\n        totalVotes = 0;\r\n        candidateCount = 0;\r\n        addCandidate(\"Ritesh\",\"BJP\");\r\n        \r\n    }\r\n    \r\n    function addCandidate(string memory _cName,string memory _pName) public {\r\n        //add candidste to mapping \r\n       \r\n        //increment candidate candidateCount\r\n        uint _vcount =0;\r\n         candidates[candidateCount++] = Candidate(_cName,_pName,_vcount,false);\r\n        //emit event\r\n        emit CandidateAdded(_cName,_pName,candidateCount - 1,_vcount);\r\n        \r\n        \r\n    }\r\n    \r\n    function casteVote(uint _cId,string memory _candName,string memory _partName) public {\r\n        totalVotes++;\r\n        candidates[_cId].voteCount++;\r\n        \r\n        emit VoteCasted(_cId,_candName,_partName);\r\n    }\r\n    \r\n    // function getWinner() public returns(string memory) {\r\n    //     uint max = 0;\r\n        \r\n    //     for(uint i=0;i<candidateCount;i++){\r\n    //         if(candidates[i].voteCount > max){\r\n    //             max = candidates[i].voteCount;\r\n    //             winner = candidates[i].partyName;\r\n    //         }\r\n    //     }\r\n        \r\n        \r\n        \r\n    //     return winner;\r\n    // }\r\n}\r\n",
  "sourcePath": "D:\\Projects\\Blockchain - Voting\\blockchain\\contracts\\VotingMachine.sol",
  "compiler": {
    "name": "solc",
    "version": "0.5.16+commit.9c3226ce.Emscripten.clang"
  },
  "schemaVersion": "3.4.6",
  "updatedAt": "2022-03-14T02:02:03.360Z",
  "networkType": "ethereum",
  "devdoc": {
    "methods": {}
  },
  "userdoc": {
    "methods": {}
  }
}