{
  "contractName": "VotingMachine",
  "abi": [
    {
      "inputs": [],
      "payable": false,
      "stateMutability": "nonpayable",
      "type": "constructor"
    },
    {
      "anonymous": false,
      "inputs": [
        {
          "indexed": false,
          "internalType": "string",
          "name": "candidateName",
          "type": "string"
        },
        {
          "indexed": false,
          "internalType": "string",
          "name": "partyName",
          "type": "string"
        },
        {
          "indexed": false,
          "internalType": "uint256",
          "name": "voteCount",
          "type": "uint256"
        },
        {
          "indexed": false,
          "internalType": "uint256",
          "name": "candidateNo",
          "type": "uint256"
        },
        {
          "indexed": false,
          "internalType": "string",
          "name": "organization",
          "type": "string"
        }
      ],
      "name": "CandidateAdded",
      "type": "event"
    },
    {
      "anonymous": false,
      "inputs": [
        {
          "indexed": false,
          "internalType": "uint256",
          "name": "candidateNo",
          "type": "uint256"
        },
        {
          "indexed": false,
          "internalType": "string",
          "name": "candidateName",
          "type": "string"
        },
        {
          "indexed": false,
          "internalType": "string",
          "name": "partyName",
          "type": "string"
        }
      ],
      "name": "VoteCasted",
      "type": "event"
    },
    {
      "constant": true,
      "inputs": [],
      "name": "candidateCount",
      "outputs": [
        {
          "internalType": "uint256",
          "name": "",
          "type": "uint256"
        }
      ],
      "payable": false,
      "stateMutability": "view",
      "type": "function"
    },
    {
      "constant": true,
      "inputs": [
        {
          "internalType": "uint256",
          "name": "",
          "type": "uint256"
        }
      ],
      "name": "candidates",
      "outputs": [
        {
          "internalType": "string",
          "name": "organization",
          "type": "string"
        },
        {
          "internalType": "string",
          "name": "candidateName",
          "type": "string"
        },
        {
          "internalType": "string",
          "name": "partyName",
          "type": "string"
        },
        {
          "internalType": "uint256",
          "name": "voteCount",
          "type": "uint256"
        },
        {
          "internalType": "bool",
          "name": "isWinner",
          "type": "bool"
        }
      ],
      "payable": false,
      "stateMutability": "view",
      "type": "function"
    },
    {
      "constant": true,
      "inputs": [],
      "name": "totalVotes",
      "outputs": [
        {
          "internalType": "uint256",
          "name": "",
          "type": "uint256"
        }
      ],
      "payable": false,
      "stateMutability": "view",
      "type": "function"
    },
    {
      "constant": true,
      "inputs": [],
      "name": "winner",
      "outputs": [
        {
          "internalType": "uint256",
          "name": "",
          "type": "uint256"
        }
      ],
      "payable": false,
      "stateMutability": "view",
      "type": "function"
    },
    {
      "constant": false,
      "inputs": [
        {
          "internalType": "string",
          "name": "_cName",
          "type": "string"
        },
        {
          "internalType": "string",
          "name": "_pName",
          "type": "string"
        },
        {
          "internalType": "string",
          "name": "_oName",
          "type": "string"
        }
      ],
      "name": "addCandidate",
      "outputs": [],
      "payable": false,
      "stateMutability": "nonpayable",
      "type": "function"
    },
    {
      "constant": false,
      "inputs": [
        {
          "internalType": "uint256",
          "name": "_cId",
          "type": "uint256"
        },
        {
          "internalType": "string",
          "name": "_candName",
          "type": "string"
        },
        {
          "internalType": "string",
          "name": "_partName",
          "type": "string"
        }
      ],
      "name": "casteVote",
      "outputs": [],
      "payable": false,
      "stateMutability": "nonpayable",
      "type": "function"
    },
    {
      "constant": false,
      "inputs": [
        {
          "internalType": "string",
          "name": "_oName",
          "type": "string"
        }
      ],
      "name": "getWinner",
      "outputs": [
        {
          "internalType": "uint256",
          "name": "",
          "type": "uint256"
        }
      ],
      "payable": false,
      "stateMutability": "nonpayable",
      "type": "function"
    }
  ],
  "bytecode": "0x60806040523480156200001157600080fd5b50600080819055506000600181905550620000b76040518060400160405280600681526020017f52697465736800000000000000000000000000000000000000000000000000008152506040518060400160405280600381526020017f424a5000000000000000000000000000000000000000000000000000000000008152506040518060600160405280602a81526020016200133a602a9139620000bd60201b60201c565b620003e1565b60008090506040518060a0016040528083815260200185815260200184815260200182815260200160001515815250600360006001600081548092919060010191905055815260200190815260200160002060008201518160000190805190602001906200012d92919062000332565b5060208201518160010190805190602001906200014c92919062000332565b5060408201518160020190805190602001906200016b92919062000332565b506060820151816003015560808201518160040160006101000a81548160ff0219169083151502179055509050507f366e0451402da24c8d47147350956c3f54f3c6480539ba706f329dbd2d2f299884846001805403848660405180806020018060200186815260200185815260200180602001848103845289818151815260200191508051906020019080838360005b8381101562000219578082015181840152602081019050620001fc565b50505050905090810190601f168015620002475780820380516001836020036101000a031916815260200191505b50848103835288818151815260200191508051906020019080838360005b838110156200028257808201518184015260208101905062000265565b50505050905090810190601f168015620002b05780820380516001836020036101000a031916815260200191505b50848103825285818151815260200191508051906020019080838360005b83811015620002eb578082015181840152602081019050620002ce565b50505050905090810190601f168015620003195780820380516001836020036101000a031916815260200191505b509850505050505050505060405180910390a150505050565b828054600181600116156101000203166002900490600052602060002090601f016020900481019282601f106200037557805160ff1916838001178555620003a6565b82800160010185558215620003a6579182015b82811115620003a557825182559160200191906001019062000388565b5b509050620003b59190620003b9565b5090565b620003de91905b80821115620003da576000816000905550600101620003c0565b5090565b90565b610f4980620003f16000396000f3fe608060405234801561001057600080fd5b506004361061007d5760003560e01c80635b80df901161005b5780635b80df901461038d578063a9a981a31461045c578063ad71f8dc1461047a578063dfbf53ae146106635761007d565b80630d15fd77146100825780631458cb2e146100a05780633477ee2e146101fc575b600080fd5b61008a610681565b6040518082815260200191505060405180910390f35b6101fa600480360360608110156100b657600080fd5b8101908080359060200190929190803590602001906401000000008111156100dd57600080fd5b8201836020820111156100ef57600080fd5b8035906020019184600183028401116401000000008311171561011157600080fd5b91908080601f016020809104026020016040519081016040528093929190818152602001838380828437600081840152601f19601f8201169050808301925050505050505091929192908035906020019064010000000081111561017457600080fd5b82018360208201111561018657600080fd5b803590602001918460018302840111640100000000831117156101a857600080fd5b91908080601f016020809104026020016040519081016040528093929190818152602001838380828437600081840152601f19601f820116905080830192505050505050509192919290505050610687565b005b6102286004803603602081101561021257600080fd5b81019080803590602001909291905050506107d4565b6040518080602001806020018060200186815260200185151515158152602001848103845289818151815260200191508051906020019080838360005b83811015610280578082015181840152602081019050610265565b50505050905090810190601f1680156102ad5780820380516001836020036101000a031916815260200191505b50848103835288818151815260200191508051906020019080838360005b838110156102e65780820151818401526020810190506102cb565b50505050905090810190601f1680156103135780820380516001836020036101000a031916815260200191505b50848103825287818151815260200191508051906020019080838360005b8381101561034c578082015181840152602081019050610331565b50505050905090810190601f1680156103795780820380516001836020036101000a031916815260200191505b509850505050505050505060405180910390f35b610446600480360360208110156103a357600080fd5b81019080803590602001906401000000008111156103c057600080fd5b8201836020820111156103d257600080fd5b803590602001918460018302840111640100000000831117156103f457600080fd5b91908080601f016020809104026020016040519081016040528093929190818152602001838380828437600081840152601f19601f8201169050808301925050505050505091929192905050506109df565b6040518082815260200191505060405180910390f35b610464610b0e565b6040518082815260200191505060405180910390f35b6106616004803603606081101561049057600080fd5b81019080803590602001906401000000008111156104ad57600080fd5b8201836020820111156104bf57600080fd5b803590602001918460018302840111640100000000831117156104e157600080fd5b91908080601f016020809104026020016040519081016040528093929190818152602001838380828437600081840152601f19601f8201169050808301925050505050505091929192908035906020019064010000000081111561054457600080fd5b82018360208201111561055657600080fd5b8035906020019184600183028401116401000000008311171561057857600080fd5b91908080601f016020809104026020016040519081016040528093929190818152602001838380828437600081840152601f19601f820116905080830192505050505050509192919290803590602001906401000000008111156105db57600080fd5b8201836020820111156105ed57600080fd5b8035906020019184600183028401116401000000008311171561060f57600080fd5b91908080601f016020809104026020016040519081016040528093929190818152602001838380828437600081840152601f19601f820116905080830192505050505050509192919290505050610b14565b005b61066b610d7a565b6040518082815260200191505060405180910390f35b60005481565b600080815480929190600101919050555060036000848152602001908152602001600020600301600081548092919060010191905055507f70e4a8b937d3f9f46e73149f3089c364d8c27e56d72bf8e0ea1155101421ea35838383604051808481526020018060200180602001838103835285818151815260200191508051906020019080838360005b8381101561072c578082015181840152602081019050610711565b50505050905090810190601f1680156107595780820380516001836020036101000a031916815260200191505b50838103825284818151815260200191508051906020019080838360005b83811015610792578082015181840152602081019050610777565b50505050905090810190601f1680156107bf5780820380516001836020036101000a031916815260200191505b509550505050505060405180910390a1505050565b6003602052806000526040600020600091509050806000018054600181600116156101000203166002900480601f0160208091040260200160405190810160405280929190818152602001828054600181600116156101000203166002900480156108805780601f1061085557610100808354040283529160200191610880565b820191906000526020600020905b81548152906001019060200180831161086357829003601f168201915b505050505090806001018054600181600116156101000203166002900480601f01602080910402602001604051908101604052809291908181526020018280546001816001161561010002031660029004801561091e5780601f106108f35761010080835404028352916020019161091e565b820191906000526020600020905b81548152906001019060200180831161090157829003601f168201915b505050505090806002018054600181600116156101000203166002900480601f0160208091040260200160405190810160405280929190818152602001828054600181600116156101000203166002900480156109bc5780601f10610991576101008083540402835291602001916109bc565b820191906000526020600020905b81548152906001019060200180831161099f57829003601f168201915b5050505050908060030154908060040160009054906101000a900460ff16905085565b6000806000905060008090505b600154811015610b0257610aae84600360008481526020019081526020016000206000018054600181600116156101000203166002900480601f016020809104026020016040519081016040528092919081815260200182805460018160011615610100020316600290048015610aa45780601f10610a7957610100808354040283529160200191610aa4565b820191906000526020600020905b815481529060010190602001808311610a8757829003601f168201915b5050505050610d80565b8015610acf5750816003600083815260200190815260200160002060030154115b15610af55760036000828152602001908152602001600020600301549150806002819055505b80806001019150506109ec565b50600254915050919050565b60015481565b60008090506040518060a001604052808381526020018581526020018481526020018281526020016000151581525060036000600160008154809291906001019190505581526020019081526020016000206000820151816000019080519060200190610b82929190610e6f565b506020820151816001019080519060200190610b9f929190610e6f565b506040820151816002019080519060200190610bbc929190610e6f565b506060820151816003015560808201518160040160006101000a81548160ff0219169083151502179055509050507f366e0451402da24c8d47147350956c3f54f3c6480539ba706f329dbd2d2f299884846001805403848660405180806020018060200186815260200185815260200180602001848103845289818151815260200191508051906020019080838360005b83811015610c68578082015181840152602081019050610c4d565b50505050905090810190601f168015610c955780820380516001836020036101000a031916815260200191505b50848103835288818151815260200191508051906020019080838360005b83811015610cce578082015181840152602081019050610cb3565b50505050905090810190601f168015610cfb5780820380516001836020036101000a031916815260200191505b50848103825285818151815260200191508051906020019080838360005b83811015610d34578082015181840152602081019050610d19565b50505050905090810190601f168015610d615780820380516001836020036101000a031916815260200191505b509850505050505050505060405180910390a150505050565b60025481565b6000816040516020018082805190602001908083835b60208310610db95780518252602082019150602081019050602083039250610d96565b6001836020036101000a03801982511681845116808217855250505050505090500191505060405160208183030381529060405280519060200120836040516020018082805190602001908083835b60208310610e2b5780518252602082019150602081019050602083039250610e08565b6001836020036101000a0380198251168184511680821785525050505050509050019150506040516020818303038152906040528051906020012014905092915050565b828054600181600116156101000203166002900490600052602060002090601f016020900481019282601f10610eb057805160ff1916838001178555610ede565b82800160010185558215610ede579182015b82811115610edd578251825591602001919060010190610ec2565b5b509050610eeb9190610eef565b5090565b610f1191905b80821115610f0d576000816000905550600101610ef5565b5090565b9056fea265627a7a72315820cb8cf6201e1a440f9743922824c9610aceb472688ec27ccdcd577daf4025b27064736f6c63430005100032307832303131393641383738654644383335373935333233386131304330463564393966436639333265",
  "source": "// SPDX-License-Identifier: UNLICENSED\r\npragma solidity >=0.5.0;\r\n\r\ncontract VotingMachine {\r\n    uint256 public totalVotes;\r\n    uint256 public candidateCount;\r\n    uint256 public winner;\r\n\r\n    struct Candidate {\r\n        string organization;\r\n        string candidateName;\r\n        string partyName;\r\n        uint256 voteCount;\r\n        bool isWinner;\r\n    }\r\n\r\n    mapping(uint256 => Candidate) public candidates;\r\n\r\n    event CandidateAdded(\r\n        string candidateName,\r\n        string partyName,\r\n        uint256 voteCount,\r\n        uint256 candidateNo,\r\n        string organization\r\n    );\r\n\r\n    event VoteCasted(\r\n        uint256 candidateNo,\r\n        string candidateName,\r\n        string partyName\r\n    );\r\n\r\n    constructor() public {\r\n        totalVotes = 0;\r\n        candidateCount = 0;\r\n        addCandidate(\r\n            \"Ritesh\",\r\n            \"BJP\",\r\n            \"0x201196A878eFD8357953238a10C0F5d99fCf932e\"\r\n        );\r\n    }\r\n\r\n    function addCandidate(\r\n        string memory _cName,\r\n        string memory _pName,\r\n        string memory _oName\r\n    ) public {\r\n        uint256 _vcount = 0;\r\n        candidates[candidateCount++] = Candidate(\r\n            _oName,\r\n            _cName,\r\n            _pName,\r\n            _vcount,\r\n            false\r\n        );\r\n\r\n        // emit event\r\n        emit CandidateAdded(\r\n            _cName,\r\n            _pName,\r\n            candidateCount - 1,\r\n            _vcount,\r\n            _oName\r\n        );\r\n    }\r\n\r\n    function casteVote(\r\n        uint256 _cId,\r\n        string memory _candName,\r\n        string memory _partName\r\n    ) public {\r\n        totalVotes++;\r\n        candidates[_cId].voteCount++;\r\n\r\n        emit VoteCasted(_cId, _candName, _partName);\r\n    }\r\n\r\n    function compareStrings(string memory a, string memory b)\r\n        internal\r\n        pure\r\n        returns (bool)\r\n    {\r\n        return (keccak256(abi.encodePacked((a))) ==\r\n            keccak256(abi.encodePacked((b))));\r\n    }\r\n\r\n    function getWinner(string memory _oName) public returns (uint256) {\r\n        uint256 max = 0;\r\n\r\n        for (uint256 i = 0; i < candidateCount; i++) {\r\n            if (\r\n                compareStrings(_oName, candidates[i].organization) &&\r\n                candidates[i].voteCount > max\r\n            ) {\r\n                max = candidates[i].voteCount;\r\n                winner = i;\r\n            }\r\n        }\r\n\r\n        return winner;\r\n    }\r\n}\r\n",
  "sourcePath": "D:\\Projects\\Blockchain - Voting\\blockchain\\contracts\\VotingMachine.sol",
  "compiler": {
    "name": "solc",
    "version": "0.5.16+commit.9c3226ce.Emscripten.clang"
  },
  "schemaVersion": "3.4.6",
  "updatedAt": "2022-03-16T02:30:07.726Z",
  "networkType": "ethereum",
  "devdoc": {
    "methods": {}
  },
  "userdoc": {
    "methods": {}
  }
}