{
  "contractName": "VotingMachine",
  "abi": [
    {
      "inputs": [],
      "stateMutability": "nonpayable",
      "type": "constructor"
    },
    {
      "anonymous": false,
      "inputs": [
        {
          "indexed": false,
          "internalType": "string",
          "name": "candidateName",
          "type": "string"
        },
        {
          "indexed": false,
          "internalType": "string",
          "name": "partyName",
          "type": "string"
        },
        {
          "indexed": false,
          "internalType": "uint256",
          "name": "voteCount",
          "type": "uint256"
        },
        {
          "indexed": false,
          "internalType": "uint256",
          "name": "candidateNo",
          "type": "uint256"
        },
        {
          "indexed": false,
          "internalType": "string",
          "name": "organization",
          "type": "string"
        }
      ],
      "name": "CandidateAdded",
      "type": "event"
    },
    {
      "anonymous": false,
      "inputs": [
        {
          "indexed": false,
          "internalType": "uint256",
          "name": "candidateNo",
          "type": "uint256"
        },
        {
          "indexed": false,
          "internalType": "string",
          "name": "candidateName",
          "type": "string"
        },
        {
          "indexed": false,
          "internalType": "string",
          "name": "partyName",
          "type": "string"
        }
      ],
      "name": "VoteCasted",
      "type": "event"
    },
    {
      "inputs": [],
      "name": "candidateCount",
      "outputs": [
        {
          "internalType": "uint256",
          "name": "",
          "type": "uint256"
        }
      ],
      "stateMutability": "view",
      "type": "function",
      "constant": true
    },
    {
      "inputs": [
        {
          "internalType": "uint256",
          "name": "",
          "type": "uint256"
        }
      ],
      "name": "candidates",
      "outputs": [
        {
          "internalType": "string",
          "name": "organization",
          "type": "string"
        },
        {
          "internalType": "string",
          "name": "candidateName",
          "type": "string"
        },
        {
          "internalType": "string",
          "name": "partyName",
          "type": "string"
        },
        {
          "internalType": "uint256",
          "name": "voteCount",
          "type": "uint256"
        },
        {
          "internalType": "bool",
          "name": "isWinner",
          "type": "bool"
        }
      ],
      "stateMutability": "view",
      "type": "function",
      "constant": true
    },
    {
      "inputs": [],
      "name": "totalVotes",
      "outputs": [
        {
          "internalType": "uint256",
          "name": "",
          "type": "uint256"
        }
      ],
      "stateMutability": "view",
      "type": "function",
      "constant": true
    },
    {
      "inputs": [],
      "name": "winner",
      "outputs": [
        {
          "internalType": "uint256",
          "name": "",
          "type": "uint256"
        }
      ],
      "stateMutability": "view",
      "type": "function",
      "constant": true
    },
    {
      "inputs": [
        {
          "internalType": "string",
          "name": "_cName",
          "type": "string"
        },
        {
          "internalType": "string",
          "name": "_pName",
          "type": "string"
        },
        {
          "internalType": "string",
          "name": "_oName",
          "type": "string"
        }
      ],
      "name": "addCandidate",
      "outputs": [],
      "stateMutability": "nonpayable",
      "type": "function"
    },
    {
      "inputs": [
        {
          "internalType": "uint256",
          "name": "_cId",
          "type": "uint256"
        },
        {
          "internalType": "string",
          "name": "_candName",
          "type": "string"
        },
        {
          "internalType": "string",
          "name": "_partName",
          "type": "string"
        }
      ],
      "name": "casteVote",
      "outputs": [],
      "stateMutability": "nonpayable",
      "type": "function"
    },
    {
      "inputs": [
        {
          "internalType": "string",
          "name": "_oName",
          "type": "string"
        }
      ],
      "name": "getWinner",
      "outputs": [
        {
          "internalType": "uint256",
          "name": "",
          "type": "uint256"
        }
      ],
      "stateMutability": "nonpayable",
      "type": "function"
    }
  ],
  "bytecode": "0x60806040523480156200001157600080fd5b506000808055600155604080518082018252600681527f526974657368000000000000000000000000000000000000000000000000000060208083019190915282518084018452600381527f424a50000000000000000000000000000000000000000000000000000000000081830152835160608101909452602a808552620000ad94919262000e8290830139640100000000620000b3810204565b620003e4565b60006040518060a00160405280838152602001858152602001848152602001828152602001600015158152506003600060016000815480929190620000f890620002af565b9091555081526020808201929092526040016000208251805191926200012492849290910190620001da565b5060208281015180516200013f9260018501920190620001da565b50604082015180516200015d916002840191602090910190620001da565b50606082015160038201556080909101516004909101805460ff1916911515919091179055600180547f366e0451402da24c8d47147350956c3f54f3c6480539ba706f329dbd2d2f29989186918691620001b791620002cd565b8486604051620001cc95949392919062000337565b60405180910390a150505050565b828054620001e8906200038e565b90600052602060002090601f0160209004810192826200020c576000855562000257565b82601f106200022757805160ff191683800117855562000257565b8280016001018555821562000257579182015b82811115620002575782518255916020019190600101906200023a565b506200026592915062000269565b5090565b5b808211156200026557600081556001016200026a565b7f4e487b7100000000000000000000000000000000000000000000000000000000600052601160045260246000fd5b6000600019821415620002c657620002c662000280565b5060010190565b600082821015620002e257620002e262000280565b500390565b6000815180845260005b818110156200030f57602081850181015186830182015201620002f1565b8181111562000322576000602083870101525b50601f01601f19169290920160200192915050565b60a0815260006200034c60a0830188620002e7565b8281036020840152620003608188620002e7565b90508560408401528460608401528281036080840152620003828185620002e7565b98975050505050505050565b600281046001821680620003a357607f821691505b60208210811415620003de577f4e487b7100000000000000000000000000000000000000000000000000000000600052602260045260246000fd5b50919050565b610a8e80620003f46000396000f3fe608060405234801561001057600080fd5b506004361061009a576000357c0100000000000000000000000000000000000000000000000000000000900480635b80df90116100785780635b80df90146100f4578063a9a981a314610107578063ad71f8dc14610110578063dfbf53ae1461012357600080fd5b80630d15fd771461009f5780631458cb2e146100bb5780633477ee2e146100d0575b600080fd5b6100a860005481565b6040519081526020015b60405180910390f35b6100ce6100c9366004610740565b61012c565b005b6100e36100de3660046107ad565b6101a2565b6040516100b2959493929190610822565b6100a8610102366004610875565b61036c565b6100a860015481565b6100ce61011e3660046108b2565b610477565b6100a860025481565b60008054908061013b83610930565b9091555050600083815260036020819052604082200180549161015d83610930565b91905055507f70e4a8b937d3f9f46e73149f3089c364d8c27e56d72bf8e0ea1155101421ea358383836040516101959392919061094b565b60405180910390a1505050565b6003602052600090815260409020805481906101bd90610980565b80601f01602080910402602001604051908101604052809291908181526020018280546101e990610980565b80156102365780601f1061020b57610100808354040283529160200191610236565b820191906000526020600020905b81548152906001019060200180831161021957829003601f168201915b50505050509080600101805461024b90610980565b80601f016020809104026020016040519081016040528092919081815260200182805461027790610980565b80156102c45780601f10610299576101008083540402835291602001916102c4565b820191906000526020600020905b8154815290600101906020018083116102a757829003601f168201915b5050505050908060020180546102d990610980565b80601f016020809104026020016040519081016040528092919081815260200182805461030590610980565b80156103525780601f1061032757610100808354040283529160200191610352565b820191906000526020600020905b81548152906001019060200180831161033557829003601f168201915b50505050600383015460049093015491929160ff16905085565b600080805b60015481101561046c576000818152600360205260409020805461041d91869161039a90610980565b80601f01602080910402602001604051908101604052809291908181526020018280546103c690610980565b80156104135780601f106103e857610100808354040283529160200191610413565b820191906000526020600020905b8154815290600101906020018083116103f657829003601f168201915b5050505050610592565b801561043a57506000818152600360208190526040909120015482105b1561045a5760008181526003602081905260409091200154600282905591505b8061046481610930565b915050610371565b505060025492915050565b60006040518060a001604052808381526020018581526020018481526020018281526020016000151581525060036000600160008154809291906104ba90610930565b9091555081526020808201929092526040016000208251805191926104e4928492909101906105eb565b5060208281015180516104fd92600185019201906105eb565b50604082015180516105199160028401916020909101906105eb565b50606082015160038201556080909101516004909101805460ff1916911515919091179055600180547f366e0451402da24c8d47147350956c3f54f3c6480539ba706f329dbd2d2f29989186918691610571916109d4565b84866040516105849594939291906109eb565b60405180910390a150505050565b6000816040516020016105a59190610a3c565b60405160208183030381529060405280519060200120836040516020016105cc9190610a3c565b6040516020818303038152906040528051906020012014905092915050565b8280546105f790610980565b90600052602060002090601f016020900481019282610619576000855561065f565b82601f1061063257805160ff191683800117855561065f565b8280016001018555821561065f579182015b8281111561065f578251825591602001919060010190610644565b5061066b92915061066f565b5090565b5b8082111561066b5760008155600101610670565b7f4e487b7100000000000000000000000000000000000000000000000000000000600052604160045260246000fd5b600082601f8301126106c457600080fd5b813567ffffffffffffffff808211156106df576106df610684565b604051601f8301601f19908116603f0116810190828211818310171561070757610707610684565b8160405283815286602085880101111561072057600080fd5b836020870160208301376000602085830101528094505050505092915050565b60008060006060848603121561075557600080fd5b83359250602084013567ffffffffffffffff8082111561077457600080fd5b610780878388016106b3565b9350604086013591508082111561079657600080fd5b506107a3868287016106b3565b9150509250925092565b6000602082840312156107bf57600080fd5b5035919050565b60005b838110156107e15781810151838201526020016107c9565b838111156107f0576000848401525b50505050565b6000815180845261080e8160208601602086016107c6565b601f01601f19169290920160200192915050565b60a08152600061083560a08301886107f6565b828103602084015261084781886107f6565b9050828103604084015261085b81876107f6565b606084019590955250509015156080909101529392505050565b60006020828403121561088757600080fd5b813567ffffffffffffffff81111561089e57600080fd5b6108aa848285016106b3565b949350505050565b6000806000606084860312156108c757600080fd5b833567ffffffffffffffff808211156108df57600080fd5b6108eb878388016106b3565b9450602086013591508082111561077457600080fd5b7f4e487b7100000000000000000000000000000000000000000000000000000000600052601160045260246000fd5b600060001982141561094457610944610901565b5060010190565b83815260606020820152600061096460608301856107f6565b828103604084015261097681856107f6565b9695505050505050565b60028104600182168061099457607f821691505b602082108114156109ce577f4e487b7100000000000000000000000000000000000000000000000000000000600052602260045260246000fd5b50919050565b6000828210156109e6576109e6610901565b500390565b60a0815260006109fe60a08301886107f6565b8281036020840152610a1081886107f6565b90508560408401528460608401528281036080840152610a3081856107f6565b98975050505050505050565b60008251610a4e8184602087016107c6565b919091019291505056fea2646970667358221220d1ed434632fb9b55884442a9286c3ff563c60d9648434db692fce14c5234a83b64736f6c634300080c0033307832303131393641383738654644383335373935333233386131304330463564393966436639333265",
  "immutableReferences": {},
  "source": "// SPDX-License-Identifier: UNLICENSED\r\npragma solidity >=0.5.0;\r\n\r\ncontract VotingMachine {\r\n    uint256 public totalVotes;\r\n    uint256 public candidateCount;\r\n    uint256 public winner;\r\n\r\n    struct Candidate {\r\n        string organization;\r\n        string candidateName;\r\n        string partyName;\r\n        uint256 voteCount;\r\n        bool isWinner;\r\n    }\r\n\r\n    mapping(uint256 => Candidate) public candidates;\r\n\r\n    event CandidateAdded(\r\n        string candidateName,\r\n        string partyName,\r\n        uint256 voteCount,\r\n        uint256 candidateNo,\r\n        string organization\r\n    );\r\n\r\n    event VoteCasted(\r\n        uint256 candidateNo,\r\n        string candidateName,\r\n        string partyName\r\n    );\r\n\r\n    constructor() {\r\n        totalVotes = 0;\r\n        candidateCount = 0;\r\n        addCandidate(\r\n            \"Ritesh\",\r\n            \"BJP\",\r\n            \"0x201196A878eFD8357953238a10C0F5d99fCf932e\"\r\n        );\r\n    }\r\n\r\n    function addCandidate(\r\n        string memory _cName,\r\n        string memory _pName,\r\n        string memory _oName\r\n    ) public {\r\n        uint256 _vcount = 0;\r\n        candidates[candidateCount++] = Candidate(\r\n            _oName,\r\n            _cName,\r\n            _pName,\r\n            _vcount,\r\n            false\r\n        );\r\n\r\n        // emit event\r\n        emit CandidateAdded(\r\n            _cName,\r\n            _pName,\r\n            candidateCount - 1,\r\n            _vcount,\r\n            _oName\r\n        );\r\n    }\r\n\r\n    function casteVote(\r\n        uint256 _cId,\r\n        string memory _candName,\r\n        string memory _partName\r\n    ) public {\r\n        totalVotes++;\r\n        candidates[_cId].voteCount++;\r\n\r\n        emit VoteCasted(_cId, _candName, _partName);\r\n    }\r\n\r\n    function compareStrings(string memory a, string memory b)\r\n        internal\r\n        pure\r\n        returns (bool)\r\n    {\r\n        return (keccak256(abi.encodePacked((a))) ==\r\n            keccak256(abi.encodePacked((b))));\r\n    }\r\n\r\n    function getWinner(string memory _oName) public returns (uint256) {\r\n        uint256 max = 0;\r\n\r\n        for (uint256 i = 0; i < candidateCount; i++) {\r\n            if (\r\n                compareStrings(_oName, candidates[i].organization) &&\r\n                candidates[i].voteCount > max\r\n            ) {\r\n                max = candidates[i].voteCount;\r\n                winner = i;\r\n            }\r\n        }\r\n\r\n        return winner;\r\n    }\r\n}\r\n",
  "sourcePath": "/app/contracts/VotingMachine.sol",
  "compiler": {
    "name": "solc",
    "version": "0.8.12+commit.f00d7308.Emscripten.clang"
  },
  "schemaVersion": "3.4.7",
  "updatedAt": "2022-05-02T01:48:23.984Z",
  "networkType": "ethereum",
  "devdoc": {
    "kind": "dev",
    "methods": {},
    "version": 1
  },
  "userdoc": {
    "kind": "user",
    "methods": {},
    "version": 1
  }
}